:0400000080316328C0
:100008007E1480310B1D09280A2861287C08031DED
:100018000E280F281C287C085A3E860087010108F4
:1000280022008E0020008D110D158D140D145428FA
:100038007C03031D202821282E287C085A3E860090
:100048008701010822008E0020000D118D158D14E6
:100058000D14542802307C06031D33283428412807
:100068007C085A3E86008701010822008E00200085
:100078008D100D148D150D15542803307C06031DA5
:100088004628472854287C085A3E860087010108DC
:1000980022008E0020000D108D150D158D1454288A
:1000A80003307C02031C59285A285C28FC0160286C
:1000B8000130F0007008FC070B117E100900803138
:1000C8006528FC015A3084000030850016308F31D5
:1000D800472780312100A001A101A201A3017E10C0
:1000E800200083315D2B200031088039BB00313579
:1000F800C100B01F802881288228411441080319B3
:10010800862887289628410A031D8B288C2894283E
:100118000030B1000030B0000030AF000030AE0059
:10012800B0179E280030B1000030B0000030AF009A
:100138000030AE0035088039B6003608BB063535C4
:10014800C000B41FA828A928AA28401440080319E9
:10015800AE28AF28BE28400A031DB328B428BC28FF
:100168000030B5000030B4000030B3000030B200F9
:10017800B417C6280030B5000030B4000030B30012
:100188000030B20040080319CA28CB28D0284108FB
:10019800031DCF28D028D9280030B1000030B00086
:1001A8000030AF000030AE00B12A2E08F10034084C
:1001B8008731DB27803172082000C7007108C6002C
:1001C8004608B600B701B801B9013908BF003808B8
:1001D800BE003708BD003608BC004708B600B701A6
:1001E800B801B9013908C5003808C4003708C30088
:1001F8003608C2002F08F10033088731DB27803129
:1002080072082000C7007108C6004608B600B7018A
:10021800B801B9013608BC073708BD3D3808BE3DEE
:100228003908BF3D4708B600B701B801B90136081B
:10023800C2073708C33D3808C43D3908C53D3008F2
:10024800F10032088731DB27803172082000C700AF
:100258007108C6004608B600B701B801B9013608EA
:10026800BC073708BD3D3808BE3D3908BF3D4708C3
:10027800B600B701B801B9013608C2073708C33D4F
:100288003808C43D3908C53D0830BC35BD0DBE0D24
:10029800BF0D890B49292F08F10032088731DB2768
:1002A800803172082000C7007108C6004608BC07E4
:1002B8004708BD3D0030BE3DBF3D2E08F100330864
:1002C8008731DB27803172082000C7007108C6001B
:1002D8004608BC074708BD3D0030BE3DBF3D08305D
:1002E800BC35BD0DBE0DBF0D890B74292E08F1005C
:1002F80032088731DB27803172082000C700710877
:10030800C6004608BC074708BD3D0030BE3DBF3D9E
:100318002F08F10034088731DB278031720820006C
:10032800C7007108C6004608C2074708C33D003029
:10033800C43DC53D3008F10033088731DB278031E3
:1003480072082000C7007108C6004608C20747089F
:10035800C33D0030C43DC53D3008F1003408873145
:10036800DB27803172082000C7007108C6004608E4
:10037800B6004708B700B801B9010830B635B70D5F
:10038800B80DB90D890BC2293608C2073708C33D15
:100398003808C43D3908C53D3C08B6003D08B700DB
:1003A8003E08B8003F08B9001830B936B80CB70C89
:1003B800B60C890BD9293608C2073708C33D380857
:1003C800C43D3908C53D0830BC35BD0DBE0DBF0D57
:1003D800890BE82941084007B600B701B70D360870
:1003E800823EC600FF30373DC700112A0130C235B2
:1003F800C30DC40DC50D890BFB29BF1F042A052A8F
:10040800062A42140130BC35BD0DBE0DBF0D890B47
:10041800072AFF30C607FF30C73DC41F142A152A14
:10042800FA29C001BF1F192A1A2A362AFF303C05AB
:10043800B600FF303D05B700FF303E05B8007F30FD
:100448003F05B900390838043704360403192D2A42
:100458002E2A312AC001C00A362A421C342A352ADB
:10046800362A2E2A400803193A2A3B2A632A0130E1
:10047800C2070030C33D0030C43D0030C53D451CB7
:10048800462A472A632A4208B6004308B7004408A8
:10049800B8004508B9000130BA00B937B80CB70C34
:1004A800B60CBA0B512A3908C5003808C4003708F9
:1004B800C3003608C2000130C6070030C73D4708F0
:1004C800803AB60080303602031D6C2AFF3046029F
:1004D800031C6F2A702A7A2A7F302000C5008030DA
:1004E800C4000030C3000030C200A52A200047081D
:1004F800803AB60080303602031D842A0130460255
:100508000318872A882A932A00302000C500003063
:10051800C4000030C3000030C200BB01A52A20007F
:100528004608C100FF30C205FF30C3057F30C4054F
:100538000030C505411CA12AA22AA32AC4174136A6
:10054800C5003B08B6003608C5044508B100440894
:10055800B0004308AF004208AE0008002000A80021
:1005680028080319B82AB92ACD2AA31FBC2ABD2AEC
:10057800CD2A2009AA002109AB002209AC002309D1
:10058800AD00AA0A0319AB0A0319AC0A0319AD0A8C
:10059800D52A2308AD002208AC002108AB002008AA
:1005A800AA002308220421042004031DDC2ADD2AD2
:1005B800E62A0030A3000030A2000030A10000307D
:1005C800A0005C2B9630A900F42A0130A40024086E
:1005D800A9070130AD36AC0CAB0CAA0C890BEE2A7E
:1005E800FE302D05031DF92AFA2AE92A0E2B0130BF
:1005F800A4002408A9070130AA070030AB3D003049
:10060800AC3D0030AD3D0130AD36AC0CAB0CAA0CA6
:10061800890B082BFF302D05031D132B142BFB2AE8
:100628001E2B0130A9020130AA35AB0DAC0DAD0D62
:10063800890B182BAC1B212B222B282B02302902CB
:100648000318272B282B152B29182B2B2C2B342B55
:10065800FF30AA05FF30AB057F30AC05FF30AD0594
:100668000310A90C2908A400A501A601A7011830A8
:10067800A435A50DA60DA70D890B3C2B2408AA04AB
:100688002508AB042608AC042708AD04280803197C
:100698004E2B4F2B542BA31F522B532B542BAD17E0
:1006A8002D08A3002C08A2002B08A1002A08A000EE
:1006B800080000302000A400A5008431692483319B
:1006C8008631F226833120006308E5006208E400E1
:1006D8008F31C6278331003A0319732B742B782B7B
:1006E800873161278331842B8F31AD278331003ADD
:1006F80003197F2B802B842B8731B6278331772BE7
:1007080020006508A5006408A400843169248331A9
:1007180020006508D1006408D0006708D300660887
:10072800D20086311C26833120005108EB00500886
:10073800EA006A088F31DF2783313F3020006E06D8
:10074800031DA72BA82BC32B65086306031DAE2B1F
:10075800640862060319B12BB22BC32B6408D800B6
:100768006508D9005808F100043087318C27833197
:1007780020005908F100053087318C27833120008B
:100788006508E3006408E2006C08031DCC2BCD2B40
:10079800EA2B3F306E06031DD22BD32BEA2B6508BC
:1007A800D1006408D0006708D3006608D2008631FB
:1007B8001C26833120005108EB005008EA006A0823
:1007C8008F31DF2783312000EC01EC0A6C2B80315C
:1007D8006328F7018F31AD278331003A0319F52BD0
:1007E800F62B102C1A30F6005E30F5006E30890BAF
:1007F800FB2BF50BFB2BF60BFB2B0032082CF70120
:10080800F70A8F31722783318F31AD278331003A50
:10081800031D0F2C102C032C77080319142C152CEE
:10082800682C8B136E3020008E008D11C83000327A
:10083800890B1B2C20000D140D18232C262C2000AE
:100848008D14282C20008D108D182B2C2E2C200078
:100858000D15302C20000D113F30F1000330873189
:100868008C2783318F31C6278331003A03193D2CF9
:100878003E2C152C8B13543020008E008D11C8305F
:100888000032890B442C20000D140D184C2C4F2CD1
:1008980020008D14512C20008D108D18542C572CAD
:1008A80020000D15592C20000D11AA30F10003303D
:1008B80087318C2783318F31AD278331003A031973
:1008C800662C672C3E2C152C08000A302000A0004E
:1008D8000030A1002508A3002408A20087312C2796
:1008E800843100302000200784001030213D8038FA
:1008F80085000008DA000A30A0000030A1000A30A4
:10090800F1000030F2002508F4002408F3008631D5
:10091800B626843172082000A3007108A20087312E
:100928002C27843100302000200784001030213D1E
:10093800803885000008DB000A30A0000030A100E4
:100948006430F1000030F2002508F4002408F300B8
:100958008631B626843172082000A3007108A200EF
:1009680087312C2784310030200020078400103084
:10097800213D803885000008DC000A30A0000030E6
:10098800A100E830F1000330F2002508F400240843
:10099800F3008631B626843172082000A30071085E
:1009A800A20087312C2784310030200020078400E2
:1009B8001030213D803885000008DD000800200047
:1009C800AF018F31C6278431003A0319EC2CED2C86
:1009D800092D1A302000AD005E30AC006E30890B56
:1009E800F32CAC0BF32CAD0BF32C0000012D8F3145
:1009F800552784312000AF01AF0A8F31C6278431D3
:100A0800003A031D082D092DFB2C20002F0803197F
:100A18000E2D0F2D572DE401E5011030E60027308B
:100A2800E7002000B3018F31C6278431003A03194B
:100A38001E2D1F2D252D8731612784312000B301FC
:100A4800B30A8F31AD278431003A03192C2D2D2D8F
:100A5800332D8731B62784312000B301B30A200033
:100A68006508A5006408A400843169248431200045
:100A780033080319402D412D152D6508B20064086F
:100A8800B1003108AE003208B0002E08F100003085
:100A980087318C27843120003008F10001308731FC
:100AA8008C278431152D0800031020004A0D4B0DAA
:100AB800FB007B08031D612D622D6B2D0030CB00E0
:100AC8000030CA000030C9000030C800C82D4808EE
:100AD800CC004908CD004A08CE004B08CF001F3093
:100AE800CF36CE0CCD0CCC0C890B742D4C08FA00EB
:100AF800CA17FF30C805FF30C905FF30CA050030E6
:100B0800CB059630FB02FB1F8A2D8B2DA32D7B086E
:100B1800803A973E0318912D922D932D622D013026
:100B2800CB36CA0CC90CC80C890B942D0130CC00EB
:100B38004C08FB07031DA12DA22D932DB82D2030A5
:100B48007B02031CA82DA92DB32D622D0130C835B9
:100B5800C90DCA0DCB0D890BAB2D0130FB027B08EB
:100B6800031DB72DB82DAA2D7A080319BC2DBD2D4C
:100B7800C82DC809C909CA09CB09C80A0319C90A6D
:100B88000319CA0A0319CB0A080000308F319827C5
:100B98008531F500F60175082000A4007608A50047
:100BA80001308F3198278531F500F601750820004E
:100BB800A6007608A7002608F600F50124087504A3
:100BC800E60025087604E70003308F319827853141
:100BD8002000EE003F306E06031DF32DF42D132E7A
:100BE80004308F3198278531F500F601750820000B
:100BF800A0007608A10005308F3198278531F500CF
:100C0800F60175082000A2007608A3002208F60065
:100C1800F50120087504E20021087604E300AA30F3
:100C28006E06031D182E192E1B2EE201E301080083
:100C380020005008A0005108A100A201A301003023
:100C48008231B222863120002308B5002208B40080
:100C58002108B3002008B200FF30F3000030F40090
:100C68005308F2005208F1008631B6268631710821
:100C78002000D4007208D500D601D7015708A30078
:100C88005608A2005508A1005408A000003082317F
:100C9800B222863120002308B1002208B0002108C2
:100CA800AF002008AE00803177208631200031085F
:100CB800CB003008CA002F08C9002E08C8008531AB
:100CC8005825863120004908D1004808D00008007E
:100CD8000030200027020A30031926020318752E57
:100CE800762E8B2E6508A5006408A400843169243B
:100CF800863102302000A9000430A800BA30890BE0
:100D0800832EA80B832EA90B832E0000B52E00304E
:100D180027020A3003192602031C932E942EAE2EA6
:100D28000030270264300319260203189C2E9D2EDA
:100D3800AE2E6508A5006408A400843169248631B4
:100D480041302000A800EE30890BA82EA80BA82E51
:100D58000000B52E6508A5006408A4008431692444
:100D680086310800F701F801710872040319BD2ED5
:100D7800BE2EED2EF601F60ACA2E0130F135F20D1F
:100D8800890BC22E0130F5007508F607F21FCD2E2B
:100D9800CE2EC12E0130F735F80D890BCF2E7208F3
:100DA8007402031DD92E71087302031CDC2EDD2E7C
:100DB800E22E7108F3027208F43B77140130F23620
:100DC800F10C890BE32E0130F602031DEC2EED2EFB
:100DD800CE2E7808F2007708F10008002000EA011A
:100DE800EB01E801E901EC018F31632786318F318E
:100DF800842786318F314D2786318431E32486312B
:100E08008331ED2386318531C9258631FB012000E8
:100E18006708A5006608A400843169248631063075
:100E28002000B5001330B400AD30890B192FB40B76
:100E3800192FB50B192F003201302000B4003408E7
:100E4800FB0705307B02031C2A2F2B2F0B2F0800D2
:100E58002000200821040319322F332F5C2FFA01B8
:100E6800FA0A3F2F0130A035A10D890B372F013029
:100E7800F9007908FA07A11F422F432F362F2108BE
:100E88002302031D492F20082202031C4C2F4D2F3B
:100E9800512F2008A2022108A33B0130A136A00C43
:100EA800890B522F0130FA02031D5B2F5C2F432F51
:100EB8002308A1002208A00008002000AA01AB0115
:100EC800200067086502031D6B2F6608640203187B
:100ED8006E2F6F2F782F0130E4070030E53D013089
:100EE800AA070030AB3D7C2F6708E5006608E400E0
:100EF8002B08A7002A08A60086316C2687318F3177
:100F0800C6278731003A031D8A2F8B2F642F0800CC
:100F1800F40023009518912F922F8D2F7408F2005A
:100F2800F3017208910073089200710893003F3032
:100F3800F20072089505200003108B1FA42FA52F1F
:100F4800A62F03148B132300151555309600AA30CD
:100F58009600951415112000031CB32FB42FB52F3C
:100F68008B1708002000AA01AB0120006408650463
:100F78000319BF2FC02FC92F0130E4020030E53B11
:100F88000130AA070030AB3DCB2FE401E5012B0867
:100F9800A7002A08A60086316C2687318F31AD2735
:100FA8008731003A031DD92FDA2FB92F0800F9002D
:100FB800F501F6017108F300F4017308F7007408ED
:100FC800F800791CE82FE92FED2F7708F507780846
:100FD800F63D0130F735F80D890BEE2F0310F90CAB
:100FE8007908031DF82FF92FE52F7608F200750808
:040FF800F1000800FC
:101E8E00640080010131890B482F00342100951226
:101E9E008B170B118B1680309500080078302000C0
:101EAE00DA007930DB006D30DC00003084009030D9
:101EBE0085000008DD000800303021008D008E0105
:101ECE000C1220008E016A302100990023008D0132
:101EDE0020008D01080050302000DA007130DB0048
:101EEE0000308400903085000008DC000030840053
:101EFE00903085000008DD00080026009E012000BD
:101F0E009A01F9309B000C3026009E0020009110A3
:101F1E002100911000308F31DF278F3121000C12FC
:101F2E000800F4006400230095189E2F9F2F992F10
:101F3E007408F100F20171089100720892003F30AE
:101F4E00F30073089505151413080800F20120001C
:101F5E008D1AB22FB32FC42F1A30F100F830890B1F
:101F6E00B62FF10BB62F003220008D1ABF2FC02FC7
:101F7E00C32FF201F20AC42FF20172080800F20117
:101F8E0020000D1ACB2FCC2FDD2F1A30F100F83098
:101F9E00890BCF2FF10BCF2F003220000D1AD82F27
:101FAE00D92FDC2FF201F20ADD2FF20172080800A0
:101FBE00F50075080339F3007308F1000430F135AC
:101FCE00FF3E031DE62F7135F200720826009E04B7
:101FDE007508F1000230F136890BF22F7108F4000A
:101FEE0074089C0020001C15911CFE2FFF2FFB2F48
:101FFE0008003F3406345B344F3466346D347D3420
:06200E0007347F346F343B
:020000040001F9
:02000E00E73FCA
:00000001FF
